{
  "contractName": "Marketplace",
  "abi": [
    {
      "constant": true,
      "inputs": [
        {
          "name": "",
          "type": "address"
        }
      ],
      "name": "storeOwners",
      "outputs": [
        {
          "name": "",
          "type": "bool"
        }
      ],
      "payable": false,
      "stateMutability": "view",
      "type": "function"
    },
    {
      "constant": false,
      "inputs": [],
      "name": "kill",
      "outputs": [],
      "payable": false,
      "stateMutability": "nonpayable",
      "type": "function"
    },
    {
      "constant": true,
      "inputs": [
        {
          "name": "",
          "type": "address"
        }
      ],
      "name": "administrators",
      "outputs": [
        {
          "name": "",
          "type": "bool"
        }
      ],
      "payable": false,
      "stateMutability": "view",
      "type": "function"
    },
    {
      "constant": true,
      "inputs": [],
      "name": "owner",
      "outputs": [
        {
          "name": "",
          "type": "address"
        }
      ],
      "payable": false,
      "stateMutability": "view",
      "type": "function"
    },
    {
      "constant": false,
      "inputs": [
        {
          "name": "newOwner",
          "type": "address"
        }
      ],
      "name": "transferOwnership",
      "outputs": [],
      "payable": false,
      "stateMutability": "nonpayable",
      "type": "function"
    },
    {
      "inputs": [],
      "payable": false,
      "stateMutability": "nonpayable",
      "type": "constructor"
    },
    {
      "constant": false,
      "inputs": [
        {
          "name": "admin",
          "type": "address"
        }
      ],
      "name": "addAdmin",
      "outputs": [],
      "payable": false,
      "stateMutability": "nonpayable",
      "type": "function"
    },
    {
      "constant": false,
      "inputs": [
        {
          "name": "admin",
          "type": "address"
        }
      ],
      "name": "removeAdmin",
      "outputs": [],
      "payable": false,
      "stateMutability": "nonpayable",
      "type": "function"
    },
    {
      "constant": true,
      "inputs": [
        {
          "name": "admin",
          "type": "address"
        }
      ],
      "name": "checkAdmin",
      "outputs": [
        {
          "name": "",
          "type": "bool"
        }
      ],
      "payable": false,
      "stateMutability": "view",
      "type": "function"
    },
    {
      "constant": false,
      "inputs": [],
      "name": "requestStoreOwnerStatus",
      "outputs": [],
      "payable": false,
      "stateMutability": "nonpayable",
      "type": "function"
    },
    {
      "constant": true,
      "inputs": [],
      "name": "getRequestedStoreOwnersLength",
      "outputs": [
        {
          "name": "",
          "type": "uint256"
        }
      ],
      "payable": false,
      "stateMutability": "view",
      "type": "function"
    },
    {
      "constant": true,
      "inputs": [
        {
          "name": "id",
          "type": "uint256"
        }
      ],
      "name": "getRequestedStoreOwner",
      "outputs": [
        {
          "name": "",
          "type": "address"
        }
      ],
      "payable": false,
      "stateMutability": "view",
      "type": "function"
    },
    {
      "constant": false,
      "inputs": [
        {
          "name": "requester",
          "type": "address"
        }
      ],
      "name": "approveStoreOwnerStatus",
      "outputs": [],
      "payable": false,
      "stateMutability": "nonpayable",
      "type": "function"
    },
    {
      "constant": false,
      "inputs": [
        {
          "name": "storeOwner",
          "type": "address"
        }
      ],
      "name": "removeStoreOwnerStatus",
      "outputs": [],
      "payable": false,
      "stateMutability": "nonpayable",
      "type": "function"
    },
    {
      "constant": true,
      "inputs": [
        {
          "name": "storeOwner",
          "type": "address"
        }
      ],
      "name": "checkStoreOwnerStatus",
      "outputs": [
        {
          "name": "",
          "type": "bool"
        }
      ],
      "payable": false,
      "stateMutability": "view",
      "type": "function"
    },
    {
      "constant": false,
      "inputs": [],
      "name": "removeStoreOwnersFromRequestList",
      "outputs": [],
      "payable": false,
      "stateMutability": "nonpayable",
      "type": "function"
    }
  ],
  "bytecode": "0x608060405234801561001057600080fd5b50336000806101000a81548173ffffffffffffffffffffffffffffffffffffffff021916908373ffffffffffffffffffffffffffffffffffffffff16021790555060018060003373ffffffffffffffffffffffffffffffffffffffff1673ffffffffffffffffffffffffffffffffffffffff16815260200190815260200160002060006101000a81548160ff021916908315150217905550610d71806100b76000396000f3006080604052600436106100db576000357c0100000000000000000000000000000000000000000000000000000000900463ffffffff168063057cc2a1146100e05780631785f53c1461013b578063304bef3c1461017e57806341c0e1b5146101c157806361451f95146101d8578063704802751461024557806373c09ef414610288578063764cb03a146102cb57806376be1585146102f65780638da5cb5b146103515780639026dee8146103a8578063ada7067a14610403578063b2791dbd1461041a578063df30149814610431578063f2fde38b1461048c575b600080fd5b3480156100ec57600080fd5b50610121600480360381019080803573ffffffffffffffffffffffffffffffffffffffff1690602001909291905050506104cf565b604051808215151515815260200191505060405180910390f35b34801561014757600080fd5b5061017c600480360381019080803573ffffffffffffffffffffffffffffffffffffffff1690602001909291905050506104ef565b005b34801561018a57600080fd5b506101bf600480360381019080803573ffffffffffffffffffffffffffffffffffffffff1690602001909291905050506105fa565b005b3480156101cd57600080fd5b506101d66106af565b005b3480156101e457600080fd5b5061020360048036038101908080359060200190929190505050610740565b604051808273ffffffffffffffffffffffffffffffffffffffff1673ffffffffffffffffffffffffffffffffffffffff16815260200191505060405180910390f35b34801561025157600080fd5b50610286600480360381019080803573ffffffffffffffffffffffffffffffffffffffff169060200190929190505050610783565b005b34801561029457600080fd5b506102c9600480360381019080803573ffffffffffffffffffffffffffffffffffffffff169060200190929190505050610837565b005b3480156102d757600080fd5b506102e06108ec565b6040518082815260200191505060405180910390f35b34801561030257600080fd5b50610337600480360381019080803573ffffffffffffffffffffffffffffffffffffffff1690602001909291905050506108f9565b604051808215151515815260200191505060405180910390f35b34801561035d57600080fd5b50610366610919565b604051808273ffffffffffffffffffffffffffffffffffffffff1673ffffffffffffffffffffffffffffffffffffffff16815260200191505060405180910390f35b3480156103b457600080fd5b506103e9600480360381019080803573ffffffffffffffffffffffffffffffffffffffff16906020019092919050505061093e565b604051808215151515815260200191505060405180910390f35b34801561040f57600080fd5b50610418610994565b005b34801561042657600080fd5b5061042f610b5d565b005b34801561043d57600080fd5b50610472600480360381019080803573ffffffffffffffffffffffffffffffffffffffff169060200190929190505050610c1f565b604051808215151515815260200191505060405180910390f35b34801561049857600080fd5b506104cd600480360381019080803573ffffffffffffffffffffffffffffffffffffffff169060200190929190505050610c75565b005b60036020528060005260406000206000915054906101000a900460ff1681565b6000809054906101000a900473ffffffffffffffffffffffffffffffffffffffff1673ffffffffffffffffffffffffffffffffffffffff163373ffffffffffffffffffffffffffffffffffffffff1614156105f75760011515600160008373ffffffffffffffffffffffffffffffffffffffff1673ffffffffffffffffffffffffffffffffffffffff16815260200190815260200160002060009054906101000a900460ff16151514156105f6576000600160008373ffffffffffffffffffffffffffffffffffffffff1673ffffffffffffffffffffffffffffffffffffffff16815260200190815260200160002060006101000a81548160ff0219169083151502179055505b5b50565b60011515600160003373ffffffffffffffffffffffffffffffffffffffff1673ffffffffffffffffffffffffffffffffffffffff16815260200190815260200160002060009054906101000a900460ff16151514156106ac576001600360008373ffffffffffffffffffffffffffffffffffffffff1673ffffffffffffffffffffffffffffffffffffffff16815260200190815260200160002060006101000a81548160ff0219169083151502179055505b50565b6000809054906101000a900473ffffffffffffffffffffffffffffffffffffffff1673ffffffffffffffffffffffffffffffffffffffff163373ffffffffffffffffffffffffffffffffffffffff16141561073e576000809054906101000a900473ffffffffffffffffffffffffffffffffffffffff1673ffffffffffffffffffffffffffffffffffffffff16ff5b565b600060028281548110151561075157fe5b9060005260206000200160009054906101000a900473ffffffffffffffffffffffffffffffffffffffff169050919050565b60011515600160003373ffffffffffffffffffffffffffffffffffffffff1673ffffffffffffffffffffffffffffffffffffffff16815260200190815260200160002060009054906101000a900460ff16151514156108345760018060008373ffffffffffffffffffffffffffffffffffffffff1673ffffffffffffffffffffffffffffffffffffffff16815260200190815260200160002060006101000a81548160ff0219169083151502179055505b50565b60011515600160003373ffffffffffffffffffffffffffffffffffffffff1673ffffffffffffffffffffffffffffffffffffffff16815260200190815260200160002060009054906101000a900460ff16151514156108e9576000600360008373ffffffffffffffffffffffffffffffffffffffff1673ffffffffffffffffffffffffffffffffffffffff16815260200190815260200160002060006101000a81548160ff0219169083151502179055505b50565b6000600280549050905090565b60016020528060005260406000206000915054906101000a900460ff1681565b6000809054906101000a900473ffffffffffffffffffffffffffffffffffffffff1681565b6000600160008373ffffffffffffffffffffffffffffffffffffffff1673ffffffffffffffffffffffffffffffffffffffff16815260200190815260200160002060009054906101000a900460ff169050919050565b600080600060011515600160003373ffffffffffffffffffffffffffffffffffffffff1673ffffffffffffffffffffffffffffffffffffffff16815260200190815260200160002060009054906101000a900460ff1615151415610b5857600092506002805490509150600090505b81811015610afc57610a4d600282815481101515610a1d57fe5b9060005260206000200160009054906101000a900473ffffffffffffffffffffffffffffffffffffffff16610c1f565b15610ae9576002836001840303815481101515610a6657fe5b9060005260206000200160009054906101000a900473ffffffffffffffffffffffffffffffffffffffff16600282815481101515610aa057fe5b9060005260206000200160006101000a81548173ffffffffffffffffffffffffffffffffffffffff021916908373ffffffffffffffffffffffffffffffffffffffff1602179055505b6001830192508080600101915050610a03565b600090505b82811015610b57576002816001840303815481101515610b1d57fe5b9060005260206000200160006101000a81549073ffffffffffffffffffffffffffffffffffffffff02191690558080600101915050610b01565b5b505050565b60001515600360003373ffffffffffffffffffffffffffffffffffffffff1673ffffffffffffffffffffffffffffffffffffffff16815260200190815260200160002060009054906101000a900460ff1615151415610c1d5760023390806001815401808255809150509060018203906000526020600020016000909192909190916101000a81548173ffffffffffffffffffffffffffffffffffffffff021916908373ffffffffffffffffffffffffffffffffffffffff160217905550505b565b6000600360008373ffffffffffffffffffffffffffffffffffffffff1673ffffffffffffffffffffffffffffffffffffffff16815260200190815260200160002060009054906101000a900460ff169050919050565b6000809054906101000a900473ffffffffffffffffffffffffffffffffffffffff1673ffffffffffffffffffffffffffffffffffffffff163373ffffffffffffffffffffffffffffffffffffffff161415610d4257600073ffffffffffffffffffffffffffffffffffffffff168173ffffffffffffffffffffffffffffffffffffffff16141515610d4157806000806101000a81548173ffffffffffffffffffffffffffffffffffffffff021916908373ffffffffffffffffffffffffffffffffffffffff1602179055505b5b505600a165627a7a7230582061ac709227ec41679ab7161ba9b7dc1cf8ab7abc75b8953079b1d5d4a866d1930029",
  "source": "pragma solidity ^0.4.2;\n\nimport \"./zeppelin/ownership/Ownable.sol\";\nimport './zeppelin/lifecycle/Killable.sol';\n\n/*\n* Marketplace \n*\n* This is the main contract for the Marketplace implementation.\n*/\ncontract Marketplace is Ownable, Killable {\n\tconstructor() public {\n\t\tadministrators[msg.sender] = true;\n\t}\n\n\tmapping (address => bool) public administrators; \n\taddress[] requestedStoreOwners;\n\tmapping (address => bool) public storeOwners;\n\n\tmodifier onlyAdmin() {\n\t\tif (administrators[msg.sender] == true)\n\t\t\t_;\n\t}\n\n\tmodifier onlyStoreOwner() {\n\t\tif (storeOwners[msg.sender] == true)\n\t\t\t_;\n\t}\n\n\tfunction addAdmin(address admin) onlyAdmin public {\n\t\tadministrators[admin] = true;\n\t}\n\n\tfunction removeAdmin(address admin) onlyOwner public {\n\t\tif (administrators[admin] == true)\n\t\t\tadministrators[admin] = false;\n\t}\n\n\tfunction checkAdmin(address admin) constant public returns (bool) {\n\t\treturn administrators[admin];\n\t}\n\n\tfunction requestStoreOwnerStatus() public {\n\t\tif (storeOwners[msg.sender] == false)\n\t\t\trequestedStoreOwners.push(msg.sender);\n\t}\n\n\tfunction getRequestedStoreOwnersLength() constant public returns (uint) {\n\t\treturn requestedStoreOwners.length;\n\t}\n\n\tfunction getRequestedStoreOwner(uint id) constant public returns (address) {\n\t\treturn requestedStoreOwners[id];\n\t} \n\n\tfunction approveStoreOwnerStatus(address requester) onlyAdmin public {\n\t\tstoreOwners[requester] = true; \n\t}\n\n\tfunction removeStoreOwnerStatus(address storeOwner) onlyAdmin public {\n\t\tstoreOwners[storeOwner] = false; \n\t}\n \n\tfunction checkStoreOwnerStatus(address storeOwner) constant public returns (bool) {\n\t\treturn storeOwners[storeOwner];\n\t}\n\n\tfunction removeStoreOwnersFromRequestList() onlyAdmin public {\n\t\tuint emptySpots = 0; \n\t\tuint requestLength = requestedStoreOwners.length;\n\t\tfor(uint i=0; i<requestLength; i++) {\n\t\t\tif (checkStoreOwnerStatus(requestedStoreOwners[i]))\n\t\t\t\trequestedStoreOwners[i] = requestedStoreOwners[requestLength-1-emptySpots];\n\t\t\t\temptySpots += 1; \n\t\t}\n\n\t\tfor(i=0; i<emptySpots; i++) {\n\t\t\tdelete requestedStoreOwners[requestLength-1-i];\n\t\t}\n\t}\n}",
  "sourcePath": "/Users/tim/Code/solidity-marketplace/contracts/Marketplace.sol",
  "compiler": {
    "name": "solc",
    "version": "0.4.24+commit.e67f0147.Emscripten.clang"
  },
  "schemaVersion": "2.0.0",
  "updatedAt": "2018-07-21T17:42:41.351Z"
}