{
  "contractName": "Marketplace",
  "abi": [
    {
      "constant": true,
      "inputs": [
        {
          "name": "",
          "type": "address"
        }
      ],
      "name": "storeOwners",
      "outputs": [
        {
          "name": "",
          "type": "bool"
        }
      ],
      "payable": false,
      "stateMutability": "view",
      "type": "function"
    },
    {
      "constant": false,
      "inputs": [],
      "name": "kill",
      "outputs": [],
      "payable": false,
      "stateMutability": "nonpayable",
      "type": "function"
    },
    {
      "constant": true,
      "inputs": [
        {
          "name": "",
          "type": "address"
        }
      ],
      "name": "administrators",
      "outputs": [
        {
          "name": "",
          "type": "bool"
        }
      ],
      "payable": false,
      "stateMutability": "view",
      "type": "function"
    },
    {
      "constant": true,
      "inputs": [],
      "name": "owner",
      "outputs": [
        {
          "name": "",
          "type": "address"
        }
      ],
      "payable": false,
      "stateMutability": "view",
      "type": "function"
    },
    {
      "constant": false,
      "inputs": [
        {
          "name": "newOwner",
          "type": "address"
        }
      ],
      "name": "transferOwnership",
      "outputs": [],
      "payable": false,
      "stateMutability": "nonpayable",
      "type": "function"
    },
    {
      "inputs": [],
      "payable": false,
      "stateMutability": "nonpayable",
      "type": "constructor"
    },
    {
      "anonymous": false,
      "inputs": [
        {
          "indexed": false,
          "name": "adminAddress",
          "type": "address"
        }
      ],
      "name": "AdminAdded",
      "type": "event"
    },
    {
      "anonymous": false,
      "inputs": [
        {
          "indexed": false,
          "name": "removedAddress",
          "type": "address"
        }
      ],
      "name": "AdminRemoved",
      "type": "event"
    },
    {
      "anonymous": false,
      "inputs": [
        {
          "indexed": false,
          "name": "requester",
          "type": "address"
        }
      ],
      "name": "StoreOwnerRequest",
      "type": "event"
    },
    {
      "anonymous": false,
      "inputs": [
        {
          "indexed": false,
          "name": "storeOwnerAddress",
          "type": "address"
        }
      ],
      "name": "StoreOwnerAdded",
      "type": "event"
    },
    {
      "anonymous": false,
      "inputs": [
        {
          "indexed": false,
          "name": "storeOwnerAddress",
          "type": "address"
        }
      ],
      "name": "StoreOwnerRemoved",
      "type": "event"
    },
    {
      "constant": false,
      "inputs": [
        {
          "name": "admin",
          "type": "address"
        }
      ],
      "name": "addAdmin",
      "outputs": [],
      "payable": false,
      "stateMutability": "nonpayable",
      "type": "function"
    },
    {
      "constant": false,
      "inputs": [
        {
          "name": "admin",
          "type": "address"
        }
      ],
      "name": "removeAdmin",
      "outputs": [],
      "payable": false,
      "stateMutability": "nonpayable",
      "type": "function"
    },
    {
      "constant": true,
      "inputs": [
        {
          "name": "admin",
          "type": "address"
        }
      ],
      "name": "checkAdmin",
      "outputs": [
        {
          "name": "",
          "type": "bool"
        }
      ],
      "payable": false,
      "stateMutability": "view",
      "type": "function"
    },
    {
      "constant": false,
      "inputs": [],
      "name": "requestStoreOwnerStatus",
      "outputs": [],
      "payable": false,
      "stateMutability": "nonpayable",
      "type": "function"
    },
    {
      "constant": true,
      "inputs": [],
      "name": "getRequestedStoreOwnersLength",
      "outputs": [
        {
          "name": "",
          "type": "uint256"
        }
      ],
      "payable": false,
      "stateMutability": "view",
      "type": "function"
    },
    {
      "constant": true,
      "inputs": [
        {
          "name": "id",
          "type": "uint256"
        }
      ],
      "name": "getRequestedStoreOwner",
      "outputs": [
        {
          "name": "",
          "type": "address"
        }
      ],
      "payable": false,
      "stateMutability": "view",
      "type": "function"
    },
    {
      "constant": false,
      "inputs": [
        {
          "name": "requester",
          "type": "address"
        }
      ],
      "name": "approveStoreOwnerStatus",
      "outputs": [],
      "payable": false,
      "stateMutability": "nonpayable",
      "type": "function"
    },
    {
      "constant": false,
      "inputs": [
        {
          "name": "storeOwner",
          "type": "address"
        }
      ],
      "name": "removeStoreOwnerStatus",
      "outputs": [],
      "payable": false,
      "stateMutability": "nonpayable",
      "type": "function"
    },
    {
      "constant": true,
      "inputs": [
        {
          "name": "storeOwner",
          "type": "address"
        }
      ],
      "name": "checkStoreOwnerStatus",
      "outputs": [
        {
          "name": "",
          "type": "bool"
        }
      ],
      "payable": false,
      "stateMutability": "view",
      "type": "function"
    },
    {
      "constant": false,
      "inputs": [],
      "name": "removeStoreOwnersFromRequestList",
      "outputs": [],
      "payable": false,
      "stateMutability": "nonpayable",
      "type": "function"
    }
  ],
  "bytecode": "0x608060405234801561001057600080fd5b5060008054600160a060020a0319163390811782558152600160208190526040909120805460ff191690911790556107e18061004d6000396000f3006080604052600436106100da5763ffffffff7c0100000000000000000000000000000000000000000000000000000000600035041663057cc2a181146100df5780631785f53c14610114578063304bef3c1461013757806341c0e1b51461015857806361451f951461016d57806370480275146101a157806373c09ef4146101c2578063764cb03a146101e357806376be15851461020a5780638da5cb5b1461022b5780639026dee814610240578063ada7067a14610261578063b2791dbd14610276578063df3014981461028b578063f2fde38b146102ac575b600080fd5b3480156100eb57600080fd5b50610100600160a060020a03600435166102cd565b604080519115158252519081900360200190f35b34801561012057600080fd5b50610135600160a060020a03600435166102e2565b005b34801561014357600080fd5b50610135600160a060020a036004351661037d565b34801561016457600080fd5b506101356103f6565b34801561017957600080fd5b50610185600435610419565b60408051600160a060020a039092168252519081900360200190f35b3480156101ad57600080fd5b50610135600160a060020a0360043516610445565b3480156101ce57600080fd5b50610135600160a060020a03600435166104bf565b3480156101ef57600080fd5b506101f8610535565b60408051918252519081900360200190f35b34801561021657600080fd5b50610100600160a060020a036004351661053b565b34801561023757600080fd5b50610185610550565b34801561024c57600080fd5b50610100600160a060020a036004351661055f565b34801561026d57600080fd5b5061013561057d565b34801561028257600080fd5b506101356106aa565b34801561029757600080fd5b50610100600160a060020a0360043516610748565b3480156102b857600080fd5b50610135600160a060020a0360043516610766565b60036020526000908152604090205460ff1681565b600054600160a060020a031633141561037a57600160a060020a03811660009081526001602081905260409091205460ff161515141561033d57600160a060020a0381166000908152600160205260409020805460ff191690555b60408051600160a060020a038316815290517fa3b62bc36326052d97ea62d63c3d60308ed4c3ea8ac079dd8499f1e9c4f80c0f9181900360200190a15b50565b3360009081526001602081905260409091205460ff161515141561037a57600160a060020a038116600081815260036020908152604091829020805460ff19166001179055815192835290517fe095b54135d91dfdb849d8f2a1232ed69da67f78cfd33a34a834084d8d037e9a9281900390910190a150565b600054600160a060020a031633141561041757600054600160a060020a0316ff5b565b600060028281548110151561042a57fe5b600091825260209091200154600160a060020a031692915050565b3360009081526001602081905260409091205460ff161515141561037a57600160a060020a038116600081815260016020818152604092839020805460ff1916909217909155815192835290517f44d6d25963f097ad14f29f06854a01f575648a1ef82f30e562ccd3889717e3399281900390910190a150565b3360009081526001602081905260409091205460ff161515141561037a57600160a060020a038116600081815260036020908152604091829020805460ff19169055815192835290517fee8258b57c171df72836d554f2addcb97a3be3652a6f9f58a431063096c0b8409281900390910190a150565b60025490565b60016020526000908152604090205460ff1681565b600054600160a060020a031681565b600160a060020a031660009081526001602052604090205460ff1690565b3360009081526001602081905260408220548291829160ff16151514156106a557505060025460009150815b81811015610657576105dd6002828154811015156105c357fe5b600091825260209091200154600160a060020a0316610748565b1561064b5760028054848403600019019081106105f657fe5b60009182526020909120015460028054600160a060020a03909216918390811061061c57fe5b9060005260206000200160006101000a815481600160a060020a030219169083600160a060020a031602179055505b600192830192016105a9565b5060005b828110156106a557600280548284036000190190811061067757fe5b6000918252602090912001805473ffffffffffffffffffffffffffffffffffffffff1916905560010161065b565b505050565b3360009081526003602052604090205460ff16151561071357600280546001810182556000919091527f405787fa12a823e0f2b7631cc41b3ba8828b3321ca811111fa75cd3aa3bb5ace01805473ffffffffffffffffffffffffffffffffffffffff1916331790555b6040805133815290517faa5f3ee9f655327209fbac6104f38ce3223d2ff9cf4abfd60cde14fe39b3b6f79181900360200190a1565b600160a060020a031660009081526003602052604090205460ff1690565b600054600160a060020a031633141561037a57600160a060020a0381161561037a5760008054600160a060020a03831673ffffffffffffffffffffffffffffffffffffffff19909116179055505600a165627a7a723058202653917428916b864635685a6d990349c9cdc534c491047e85c1e23353b41d710029",
  "source": "pragma solidity ^0.4.2;\n\nimport \"./zeppelin/ownership/Ownable.sol\";\nimport './zeppelin/lifecycle/Killable.sol';\n\n/*\n* Marketplace \n*\n* This is the main contract for the Marketplace implementation.\n*/\ncontract Marketplace is Ownable, Killable {\n\tconstructor() public {\n\t\tadministrators[msg.sender] = true;\n\t}\n\n\tmapping (address => bool) public administrators; \n\taddress[] requestedStoreOwners;\n\tmapping (address => bool) public storeOwners;\n\n\tevent AdminAdded (address adminAddress);\n\tevent AdminRemoved (address removedAddress);\n\tevent StoreOwnerRequest (address requester);\n\tevent StoreOwnerAdded (address storeOwnerAddress);\n\tevent StoreOwnerRemoved (address storeOwnerAddress);\n\n\tmodifier onlyAdmin() {\n\t\tif (administrators[msg.sender] == true)\n\t\t\t_;\n\t}\n\n\tfunction addAdmin(address admin) onlyAdmin public {\n\t\tadministrators[admin] = true;\n\t\temit AdminAdded(admin);\n\t}\n\n\tfunction removeAdmin(address admin) onlyOwner public {\n\t\tif (administrators[admin] == true)\n\t\t\tadministrators[admin] = false;\n\t\t\temit AdminRemoved(admin);\n\t}\n\n\tfunction checkAdmin(address admin) constant public returns (bool) {\n\t\treturn administrators[admin];\n\t}\n\n\tfunction requestStoreOwnerStatus() public {\n\t\tif (storeOwners[msg.sender] == false)\n\t\t\trequestedStoreOwners.push(msg.sender);\n\t\t\temit StoreOwnerRequest(msg.sender);\n\t}\n\n\tfunction getRequestedStoreOwnersLength() constant public returns (uint) {\n\t\treturn requestedStoreOwners.length;\n\t}\n\n\tfunction getRequestedStoreOwner(uint id) constant public returns (address) {\n\t\treturn requestedStoreOwners[id];\n\t} \n\n\tfunction approveStoreOwnerStatus(address requester) onlyAdmin public {\n\t\tstoreOwners[requester] = true; \n\t\temit StoreOwnerAdded(requester);\n\t}\n\n\tfunction removeStoreOwnerStatus(address storeOwner) onlyAdmin public {\n\t\tstoreOwners[storeOwner] = false; \n\t\temit StoreOwnerRemoved(storeOwner);\n\t}\n \n\tfunction checkStoreOwnerStatus(address storeOwner) constant public returns (bool) {\n\t\treturn storeOwners[storeOwner];\n\t}\n\n\tfunction removeStoreOwnersFromRequestList() onlyAdmin public {\n\t\tuint emptySpots = 0; \n\t\tuint requestLength = requestedStoreOwners.length;\n\t\tfor(uint i=0; i<requestLength; i++) {\n\t\t\tif (checkStoreOwnerStatus(requestedStoreOwners[i]))\n\t\t\t\trequestedStoreOwners[i] = requestedStoreOwners[requestLength-1-emptySpots];\n\t\t\t\temptySpots += 1; \n\t\t}\n\n\t\tfor(i=0; i<emptySpots; i++) {\n\t\t\tdelete requestedStoreOwners[requestLength-1-i];\n\t\t}\n\t}\n}",
  "sourcePath": "/Users/tim/Code/solidity-marketplace/contracts/Marketplace.sol",
  "compiler": {
    "name": "solc",
    "version": "0.4.24+commit.e67f0147.Emscripten.clang"
  },
  "schemaVersion": "2.0.1",
  "updatedAt": "2018-08-18T16:56:31.619Z"
}