{
  "contractName": "Stores",
  "abi": [
    {
      "constant": true,
      "inputs": [],
      "name": "marketplaceInstance",
      "outputs": [
        {
          "name": "",
          "type": "address"
        }
      ],
      "payable": false,
      "stateMutability": "view",
      "type": "function"
    },
    {
      "constant": false,
      "inputs": [],
      "name": "kill",
      "outputs": [],
      "payable": false,
      "stateMutability": "nonpayable",
      "type": "function"
    },
    {
      "constant": true,
      "inputs": [],
      "name": "marketplaceId",
      "outputs": [
        {
          "name": "",
          "type": "address"
        }
      ],
      "payable": false,
      "stateMutability": "view",
      "type": "function"
    },
    {
      "constant": true,
      "inputs": [],
      "name": "owner",
      "outputs": [
        {
          "name": "",
          "type": "address"
        }
      ],
      "payable": false,
      "stateMutability": "view",
      "type": "function"
    },
    {
      "constant": true,
      "inputs": [
        {
          "name": "",
          "type": "bytes32"
        }
      ],
      "name": "storefrontById",
      "outputs": [
        {
          "name": "id",
          "type": "bytes32"
        },
        {
          "name": "name",
          "type": "string"
        },
        {
          "name": "owner",
          "type": "address"
        },
        {
          "name": "balance",
          "type": "uint256"
        }
      ],
      "payable": false,
      "stateMutability": "view",
      "type": "function"
    },
    {
      "constant": true,
      "inputs": [
        {
          "name": "",
          "type": "address"
        },
        {
          "name": "",
          "type": "uint256"
        }
      ],
      "name": "storefronts",
      "outputs": [
        {
          "name": "",
          "type": "bytes32"
        }
      ],
      "payable": false,
      "stateMutability": "view",
      "type": "function"
    },
    {
      "constant": true,
      "inputs": [
        {
          "name": "",
          "type": "bytes32"
        },
        {
          "name": "",
          "type": "uint256"
        }
      ],
      "name": "inventories",
      "outputs": [
        {
          "name": "id",
          "type": "bytes32"
        },
        {
          "name": "name",
          "type": "string"
        },
        {
          "name": "description",
          "type": "string"
        },
        {
          "name": "cost",
          "type": "uint256"
        },
        {
          "name": "qty",
          "type": "uint256"
        },
        {
          "name": "storefrontId",
          "type": "bytes32"
        }
      ],
      "payable": false,
      "stateMutability": "view",
      "type": "function"
    },
    {
      "constant": false,
      "inputs": [
        {
          "name": "newOwner",
          "type": "address"
        }
      ],
      "name": "transferOwnership",
      "outputs": [],
      "payable": false,
      "stateMutability": "nonpayable",
      "type": "function"
    },
    {
      "inputs": [
        {
          "name": "marketplaceContract",
          "type": "address"
        }
      ],
      "payable": false,
      "stateMutability": "nonpayable",
      "type": "constructor"
    },
    {
      "anonymous": false,
      "inputs": [
        {
          "indexed": false,
          "name": "id",
          "type": "bytes32"
        },
        {
          "indexed": false,
          "name": "name",
          "type": "string"
        },
        {
          "indexed": false,
          "name": "owner",
          "type": "address"
        },
        {
          "indexed": false,
          "name": "totalStores",
          "type": "uint256"
        }
      ],
      "name": "StorefrontCreated",
      "type": "event"
    },
    {
      "anonymous": false,
      "inputs": [
        {
          "indexed": false,
          "name": "id",
          "type": "bytes32"
        }
      ],
      "name": "StorefrontRemoved",
      "type": "event"
    },
    {
      "anonymous": false,
      "inputs": [
        {
          "indexed": false,
          "name": "id",
          "type": "bytes32"
        },
        {
          "indexed": false,
          "name": "name",
          "type": "string"
        },
        {
          "indexed": false,
          "name": "description",
          "type": "string"
        },
        {
          "indexed": false,
          "name": "cost",
          "type": "uint256"
        },
        {
          "indexed": false,
          "name": "qty",
          "type": "uint256"
        },
        {
          "indexed": false,
          "name": "storefrontId",
          "type": "bytes32"
        }
      ],
      "name": "ProductCreated",
      "type": "event"
    },
    {
      "anonymous": false,
      "inputs": [
        {
          "indexed": false,
          "name": "productId",
          "type": "bytes32"
        },
        {
          "indexed": false,
          "name": "storefrontId",
          "type": "bytes32"
        }
      ],
      "name": "ProductRemoved",
      "type": "event"
    },
    {
      "anonymous": false,
      "inputs": [
        {
          "indexed": false,
          "name": "str",
          "type": "string"
        }
      ],
      "name": "T",
      "type": "event"
    },
    {
      "constant": false,
      "inputs": [
        {
          "name": "name",
          "type": "string"
        }
      ],
      "name": "createStorefront",
      "outputs": [
        {
          "name": "",
          "type": "bytes32"
        }
      ],
      "payable": false,
      "stateMutability": "nonpayable",
      "type": "function"
    },
    {
      "constant": false,
      "inputs": [
        {
          "name": "id",
          "type": "bytes32"
        }
      ],
      "name": "removeStorefront",
      "outputs": [],
      "payable": false,
      "stateMutability": "nonpayable",
      "type": "function"
    },
    {
      "constant": true,
      "inputs": [
        {
          "name": "owner",
          "type": "address"
        }
      ],
      "name": "getStorefrontCountByOwner",
      "outputs": [
        {
          "name": "",
          "type": "uint256"
        }
      ],
      "payable": false,
      "stateMutability": "view",
      "type": "function"
    },
    {
      "constant": true,
      "inputs": [
        {
          "name": "owner",
          "type": "address"
        },
        {
          "name": "storefrontIndex",
          "type": "uint256"
        }
      ],
      "name": "getStorefrontsIdByOwnerAndIndex",
      "outputs": [
        {
          "name": "",
          "type": "bytes32"
        }
      ],
      "payable": false,
      "stateMutability": "view",
      "type": "function"
    },
    {
      "constant": false,
      "inputs": [
        {
          "name": "storefrontId",
          "type": "bytes32"
        },
        {
          "name": "name",
          "type": "string"
        },
        {
          "name": "description",
          "type": "string"
        },
        {
          "name": "cost",
          "type": "uint256"
        },
        {
          "name": "qty",
          "type": "uint256"
        }
      ],
      "name": "addProductToStorefront",
      "outputs": [
        {
          "name": "",
          "type": "bytes32"
        }
      ],
      "payable": false,
      "stateMutability": "nonpayable",
      "type": "function"
    },
    {
      "constant": false,
      "inputs": [
        {
          "name": "productId",
          "type": "bytes32"
        },
        {
          "name": "storefrontId",
          "type": "bytes32"
        }
      ],
      "name": "removeProductFromStorefront",
      "outputs": [],
      "payable": false,
      "stateMutability": "nonpayable",
      "type": "function"
    },
    {
      "constant": true,
      "inputs": [
        {
          "name": "id",
          "type": "bytes32"
        }
      ],
      "name": "getProductCountByStorefrontId",
      "outputs": [
        {
          "name": "",
          "type": "uint256"
        }
      ],
      "payable": false,
      "stateMutability": "view",
      "type": "function"
    },
    {
      "constant": false,
      "inputs": [
        {
          "name": "str",
          "type": "string"
        }
      ],
      "name": "print",
      "outputs": [],
      "payable": false,
      "stateMutability": "nonpayable",
      "type": "function"
    },
    {
      "constant": false,
      "inputs": [
        {
          "name": "storefrontId",
          "type": "bytes32"
        },
        {
          "name": "productIndex",
          "type": "uint256"
        }
      ],
      "name": "getProductIdByStorefrontIdAndIndex",
      "outputs": [
        {
          "name": "",
          "type": "bytes32"
        }
      ],
      "payable": false,
      "stateMutability": "nonpayable",
      "type": "function"
    }
  ],
  "bytecode": "0x608060405234801561001057600080fd5b5060405160208061219483398101806040528101908080519060200190929190505050336000806101000a81548173ffffffffffffffffffffffffffffffffffffffff021916908373ffffffffffffffffffffffffffffffffffffffff16021790555080600260006101000a81548173ffffffffffffffffffffffffffffffffffffffff021916908373ffffffffffffffffffffffffffffffffffffffff16021790555080600160006101000a81548173ffffffffffffffffffffffffffffffffffffffff021916908373ffffffffffffffffffffffffffffffffffffffff1602179055505061208f806101056000396000f3006080604052600436106100f1576000357c0100000000000000000000000000000000000000000000000000000000900463ffffffff1680630ef433a8146100f657806311114af11461014d5780632c9e225c146101b657806340be4880146101fb57806341c0e1b5146102525780638282c7f7146102695780638875f198146102c05780638da5cb5b146103175780638eade9d21461036e578063a4eb1a81146103ad578063bd68d7661461049a578063cbdbaab314610503578063d0c8d6e7146105f6578063e63898651461067b578063ecb01a2d146106e4578063f26cb8b214610830578063f2fde38b14610861575b600080fd5b34801561010257600080fd5b50610137600480360381019080803573ffffffffffffffffffffffffffffffffffffffff1690602001909291905050506108a4565b6040518082815260200191505060405180910390f35b34801561015957600080fd5b506101b4600480360381019080803590602001908201803590602001908080601f01602080910402602001604051908101604052809392919081815260200183838082843782019150505050505091929192905050506109c1565b005b3480156101c257600080fd5b506101e56004803603810190808035600019169060200190929190505050610a60565b6040518082815260200191505060405180910390f35b34801561020757600080fd5b50610210610a88565b604051808273ffffffffffffffffffffffffffffffffffffffff1673ffffffffffffffffffffffffffffffffffffffff16815260200191505060405180910390f35b34801561025e57600080fd5b50610267610aae565b005b34801561027557600080fd5b5061027e610b3f565b604051808273ffffffffffffffffffffffffffffffffffffffff1673ffffffffffffffffffffffffffffffffffffffff16815260200191505060405180910390f35b3480156102cc57600080fd5b506102f9600480360381019080803560001916906020019092919080359060200190929190505050610b65565b60405180826000191660001916815260200191505060405180910390f35b34801561032357600080fd5b5061032c610ba9565b604051808273ffffffffffffffffffffffffffffffffffffffff1673ffffffffffffffffffffffffffffffffffffffff16815260200191505060405180910390f35b34801561037a57600080fd5b506103ab60048036038101908080356000191690602001909291908035600019169060200190929190505050610bce565b005b3480156103b957600080fd5b5061047c6004803603810190808035600019169060200190929190803590602001908201803590602001908080601f0160208091040260200160405190810160405280939291908181526020018383808284378201915050505050509192919290803590602001908201803590602001908080601f01602080910402602001604051908101604052809392919081815260200183838082843782019150505050505091929192908035906020019092919080359060200190929190505050610e34565b60405180826000191660001916815260200191505060405180910390f35b3480156104a657600080fd5b506104e5600480360381019080803573ffffffffffffffffffffffffffffffffffffffff169060200190929190803590602001909291905050506111af565b60405180826000191660001916815260200191505060405180910390f35b34801561050f57600080fd5b506105326004803603810190808035600019169060200190929190505050611210565b604051808560001916600019168152602001806020018473ffffffffffffffffffffffffffffffffffffffff1673ffffffffffffffffffffffffffffffffffffffff168152602001838152602001828103825285818151815260200191508051906020019080838360005b838110156105b857808201518184015260208101905061059d565b50505050905090810190601f1680156105e55780820380516001836020036101000a031916815260200191505b509550505050505060405180910390f35b34801561060257600080fd5b5061065d600480360381019080803590602001908201803590602001908080601f01602080910402602001604051908101604052809392919081815260200183838082843782019150505050505091929192905050506112f8565b60405180826000191660001916815260200191505060405180910390f35b34801561068757600080fd5b506106c6600480360381019080803573ffffffffffffffffffffffffffffffffffffffff16906020019092919080359060200190929190505050611705565b60405180826000191660001916815260200191505060405180910390f35b3480156106f057600080fd5b5061071d600480360381019080803560001916906020019092919080359060200190929190505050611735565b60405180876000191660001916815260200180602001806020018681526020018581526020018460001916600019168152602001838103835288818151815260200191508051906020019080838360005b8381101561078957808201518184015260208101905061076e565b50505050905090810190601f1680156107b65780820380516001836020036101000a031916815260200191505b50838103825287818151815260200191508051906020019080838360005b838110156107ef5780820151818401526020810190506107d4565b50505050905090810190601f16801561081c5780820380516001836020036101000a031916815260200191505b509850505050505050505060405180910390f35b34801561083c57600080fd5b5061085f60048036038101908080356000191690602001909291905050506118bd565b005b34801561086d57600080fd5b506108a2600480360381019080803573ffffffffffffffffffffffffffffffffffffffff169060200190929190505050611da0565b005b6000806000600360008573ffffffffffffffffffffffffffffffffffffffff1673ffffffffffffffffffffffffffffffffffffffff168152602001908152602001600020805490509150600090505b600360008573ffffffffffffffffffffffffffffffffffffffff1673ffffffffffffffffffffffffffffffffffffffff168152602001908152602001600020805490508110156109b7576000600102600360008673ffffffffffffffffffffffffffffffffffffffff1673ffffffffffffffffffffffffffffffffffffffff1681526020019081526020016000208281548110151561098e57fe5b90600052602060002001546000191614156109aa576001820391505b80806001019150506108f3565b8192505050919050565b7f76e0c274e6b8417c27b09f482458c1f33090db1230a264d4177fba03c3a8ed2f816040518080602001828103825283818151815260200191508051906020019080838360005b83811015610a23578082015181840152602081019050610a08565b50505050905090810190601f168015610a505780820380516001836020036101000a031916815260200191505b509250505060405180910390a150565b6000600560008360001916600019168152602001908152602001600020805490509050919050565b600260009054906101000a900473ffffffffffffffffffffffffffffffffffffffff1681565b6000809054906101000a900473ffffffffffffffffffffffffffffffffffffffff1673ffffffffffffffffffffffffffffffffffffffff163373ffffffffffffffffffffffffffffffffffffffff161415610b3d576000809054906101000a900473ffffffffffffffffffffffffffffffffffffffff1673ffffffffffffffffffffffffffffffffffffffff16ff5b565b600160009054906101000a900473ffffffffffffffffffffffffffffffffffffffff1681565b600060056000846000191660001916815260200190815260200160002082815481101515610b8f57fe5b906000526020600020906006020160000154905092915050565b6000809054906101000a900473ffffffffffffffffffffffffffffffffffffffff1681565b6000806000833373ffffffffffffffffffffffffffffffffffffffff1660046000836000191660001916815260200190815260200160002060020160009054906101000a900473ffffffffffffffffffffffffffffffffffffffff1673ffffffffffffffffffffffffffffffffffffffff161415610e2c57600560008660001916600019168152602001908152602001600020935083805490509250600091505b82821015610ddc5785600019168483815481101515610c8a57fe5b906000526020600020906006020160000154600019161415610dcf578360018403815481101515610cb757fe5b90600052602060002090600602018483815481101515610cd357fe5b90600052602060002090600602016000820154816000019060001916905560018201816001019080546001816001161561010002031660029004610d18929190611e70565b5060028201816002019080546001816001161561010002031660029004610d40929190611e70565b506003820154816003015560048201548160040155600582015481600501906000191690559050508360018403815481101515610d7957fe5b9060005260206000209060060201600080820160009055600182016000610da09190611ef7565b600282016000610db09190611ef7565b6003820160009055600482016000905560058201600090555050610ddc565b8180600101925050610c6f565b7f9396d89cfd36885055291073c496c2bc497cca89a17ca88b5831153129be8f3f868660405180836000191660001916815260200182600019166000191681526020019250505060405180910390a15b505050505050565b600080610e3f611f3f565b873373ffffffffffffffffffffffffffffffffffffffff1660046000836000191660001916815260200190815260200160002060020160009054906101000a900473ffffffffffffffffffffffffffffffffffffffff1673ffffffffffffffffffffffffffffffffffffffff1614156111a35733898942604051808573ffffffffffffffffffffffffffffffffffffffff1673ffffffffffffffffffffffffffffffffffffffff166c01000000000000000000000000028152601401846000191660001916815260200183805190602001908083835b602083101515610f3a5780518252602082019150602081019050602083039250610f15565b6001836020036101000a0380198251168184511680821785525050505050509050018281526020019450505050506040518091039020925060c060405190810160405280846000191681526020018981526020018881526020018781526020018681526020018a600019168152509150600560008a60001916600019168152602001908152602001600020829080600181540180825580915050906001820390600052602060002090600602016000909192909190915060008201518160000190600019169055602082015181600101908051906020019061101d929190611f7c565b50604082015181600201908051906020019061103a929190611f7c565b50606082015181600301556080820151816004015560a082015181600501906000191690555050507fd6f06da506a6a9f4ad6f1228e309816cf3d901169d4caece6e6a2083e66c612683898989898e60405180876000191660001916815260200180602001806020018681526020018581526020018460001916600019168152602001838103835288818151815260200191508051906020019080838360005b838110156110f55780820151818401526020810190506110da565b50505050905090810190601f1680156111225780820380516001836020036101000a031916815260200191505b50838103825287818151815260200191508051906020019080838360005b8381101561115b578082015181840152602081019050611140565b50505050905090810190601f1680156111885780820380516001836020036101000a031916815260200191505b509850505050505050505060405180910390a1816000015193505b50505095945050505050565b6000600360008473ffffffffffffffffffffffffffffffffffffffff1673ffffffffffffffffffffffffffffffffffffffff168152602001908152602001600020828154811015156111fd57fe5b9060005260206000200154905092915050565b6004602052806000526040600020600091509050806000015490806001018054600181600116156101000203166002900480601f0160208091040260200160405190810160405280929190818152602001828054600181600116156101000203166002900480156112c25780601f10611297576101008083540402835291602001916112c2565b820191906000526020600020905b8154815290600101906020018083116112a557829003601f168201915b5050505050908060020160009054906101000a900473ffffffffffffffffffffffffffffffffffffffff16908060030154905084565b600080611303611ffc565b60011515600260009054906101000a900473ffffffffffffffffffffffffffffffffffffffff1673ffffffffffffffffffffffffffffffffffffffff1663df301498336040518263ffffffff167c0100000000000000000000000000000000000000000000000000000000028152600401808273ffffffffffffffffffffffffffffffffffffffff1673ffffffffffffffffffffffffffffffffffffffff168152602001915050602060405180830381600087803b1580156113c457600080fd5b505af11580156113d8573d6000803e3d6000fd5b505050506040513d60208110156113ee57600080fd5b8101908080519060200190929190505050151514156116fe57338442604051808473ffffffffffffffffffffffffffffffffffffffff1673ffffffffffffffffffffffffffffffffffffffff166c0100000000000000000000000002815260140183805190602001908083835b602083101515611480578051825260208201915060208101905060208303925061145b565b6001836020036101000a038019825116818451168082178552505050505050905001828152602001935050505060405180910390209150608060405190810160405280836000191681526020018581526020013373ffffffffffffffffffffffffffffffffffffffff16815260200160008152509050600360003373ffffffffffffffffffffffffffffffffffffffff1673ffffffffffffffffffffffffffffffffffffffff16815260200190815260200160002081600001519080600181540180825580915050906001820390600052602060002001600090919290919091509060001916905550806004600084600019166000191681526020019081526020016000206000820151816000019060001916905560208201518160010190805190602001906115b1929190611f7c565b5060408201518160020160006101000a81548173ffffffffffffffffffffffffffffffffffffffff021916908373ffffffffffffffffffffffffffffffffffffffff160217905550606082015181600301559050507f63b1e6cf44931a3824f6f14a47a4fa82702fc1cdb53a164de2071dd0a356ecac828533611633336108a4565b604051808560001916600019168152602001806020018473ffffffffffffffffffffffffffffffffffffffff1673ffffffffffffffffffffffffffffffffffffffff168152602001838152602001828103825285818151815260200191508051906020019080838360005b838110156116b957808201518184015260208101905061169e565b50505050905090810190601f1680156116e65780820380516001836020036101000a031916815260200191505b509550505050505060405180910390a1806000015192505b5050919050565b60036020528160005260406000208181548110151561172057fe5b90600052602060002001600091509150505481565b60056020528160005260406000208181548110151561175057fe5b906000526020600020906006020160009150915050806000015490806001018054600181600116156101000203166002900480601f0160208091040260200160405190810160405280929190818152602001828054600181600116156101000203166002900480156118035780601f106117d857610100808354040283529160200191611803565b820191906000526020600020905b8154815290600101906020018083116117e657829003601f168201915b505050505090806002018054600181600116156101000203166002900480601f0160208091040260200160405190810160405280929190818152602001828054600181600116156101000203166002900480156118a15780601f10611876576101008083540402835291602001916118a1565b820191906000526020600020905b81548152906001019060200180831161188457829003601f168201915b5050505050908060030154908060040154908060050154905086565b6118c5611ffc565b6000806000843373ffffffffffffffffffffffffffffffffffffffff1660046000836000191660001916815260200190815260200160002060020160009054906101000a900473ffffffffffffffffffffffffffffffffffffffff1673ffffffffffffffffffffffffffffffffffffffff161415611d985760046000876000191660001916815260200190815260200160002060806040519081016040529081600082015460001916600019168152602001600182018054600181600116156101000203166002900480601f016020809104026020016040519081016040528092919081815260200182805460018160011615610100020316600290048015611a0f5780601f106119e457610100808354040283529160200191611a0f565b820191906000526020600020905b8154815290600101906020018083116119f257829003601f168201915b505050505081526020016002820160009054906101000a900473ffffffffffffffffffffffffffffffffffffffff1673ffffffffffffffffffffffffffffffffffffffff1673ffffffffffffffffffffffffffffffffffffffff16815260200160038201548152505094506005600087600019166000191681526020019081526020016000209350600092505b8380549050831015611b14578383815481101515611ab657fe5b9060005260206000209060060201600080820160009055600182016000611add9190611ef7565b600282016000611aed9190611ef7565b60038201600090556004820160009055600582016000905550508280600101935050611a9c565b600360003373ffffffffffffffffffffffffffffffffffffffff1673ffffffffffffffffffffffffffffffffffffffff168152602001908152602001600020805490509150600092505b81831015611cf3578560001916600360003373ffffffffffffffffffffffffffffffffffffffff1673ffffffffffffffffffffffffffffffffffffffff16815260200190815260200160002084815481101515611bb757fe5b9060005260206000200154600019161415611ce657600360003373ffffffffffffffffffffffffffffffffffffffff1673ffffffffffffffffffffffffffffffffffffffff16815260200190815260200160002060018303815481101515611c1b57fe5b9060005260206000200154600360003373ffffffffffffffffffffffffffffffffffffffff1673ffffffffffffffffffffffffffffffffffffffff16815260200190815260200160002084815481101515611c7257fe5b906000526020600020018160001916905550600360003373ffffffffffffffffffffffffffffffffffffffff1673ffffffffffffffffffffffffffffffffffffffff16815260200190815260200160002060018303815481101515611cd357fe5b9060005260206000200160009055611cf3565b8280600101935050611b5e565b600460008760001916600019168152602001908152602001600020600080820160009055600182016000611d279190611ef7565b6002820160006101000a81549073ffffffffffffffffffffffffffffffffffffffff0219169055600382016000905550507fa16d84ad81a40b510e191d53e48b35c490398b47c2a058f71f876ed1edbc62ff8660405180826000191660001916815260200191505060405180910390a15b505050505050565b6000809054906101000a900473ffffffffffffffffffffffffffffffffffffffff1673ffffffffffffffffffffffffffffffffffffffff163373ffffffffffffffffffffffffffffffffffffffff161415611e6d57600073ffffffffffffffffffffffffffffffffffffffff168173ffffffffffffffffffffffffffffffffffffffff16141515611e6c57806000806101000a81548173ffffffffffffffffffffffffffffffffffffffff021916908373ffffffffffffffffffffffffffffffffffffffff1602179055505b5b50565b828054600181600116156101000203166002900490600052602060002090601f016020900481019282601f10611ea95780548555611ee6565b82800160010185558215611ee657600052602060002091601f016020900482015b82811115611ee5578254825591600101919060010190611eca565b5b509050611ef3919061203e565b5090565b50805460018160011615610100020316600290046000825580601f10611f1d5750611f3c565b601f016020900490600052602060002090810190611f3b919061203e565b5b50565b60c0604051908101604052806000801916815260200160608152602001606081526020016000815260200160008152602001600080191681525090565b828054600181600116156101000203166002900490600052602060002090601f016020900481019282601f10611fbd57805160ff1916838001178555611feb565b82800160010185558215611feb579182015b82811115611fea578251825591602001919060010190611fcf565b5b509050611ff8919061203e565b5090565b6080604051908101604052806000801916815260200160608152602001600073ffffffffffffffffffffffffffffffffffffffff168152602001600081525090565b61206091905b8082111561205c576000816000905550600101612044565b5090565b905600a165627a7a7230582090c7cf7a00b9280ac3d007b054432f193de61001467c380d2d148de0afbb81f40029",
  "source": "pragma solidity ^0.4.2;\n\nimport \"./zeppelin/ownership/Ownable.sol\";\nimport './zeppelin/lifecycle/Killable.sol';\nimport './Marketplace.sol';\n\n\n/*\n* Store \n*\n* This is the main contract for the Store implementation.\n*/\ncontract Stores is Ownable, Killable {\n\taddress public marketplaceId; \n\tMarketplace public marketplaceInstance; \n\n\tconstructor(address marketplaceContract) public {\n\t\tmarketplaceInstance = Marketplace(marketplaceContract);\n\t\tmarketplaceId = marketplaceContract; \n\t}\n\n\tstruct Storefront {\n\t\tbytes32 id; \n\t\tstring name;\n\t\taddress owner; \n\t\tuint balance; \n\t}\n\n\tstruct Product {\n\t\tbytes32 id; \n\t\tstring name; \n\t\tstring description; \n\t\tuint cost; \n\t\tuint qty; \n\t\tbytes32 storefrontId; \n\t}\n\n\tevent StorefrontCreated (\n\t\tbytes32 id, \n\t\tstring name, \n\t\taddress owner, \n\t\tuint totalStores);\n\n\tevent StorefrontRemoved (\n\t\tbytes32 id);\n\n\tevent ProductCreated (\n\t\tbytes32 id, \n\t\tstring name, \n\t\tstring description, \n\t\tuint cost, \n\t\tuint qty, \n\t\tbytes32 storefrontId);\n\n\tevent ProductRemoved (\n\t\tbytes32 productId, \n\t\tbytes32 storefrontId);\n\n\tmapping (address => bytes32[]) public storefronts; \n\tmapping (bytes32 => Storefront) public storefrontById;\n\tmapping (bytes32 => Product []) public inventories; \n\n\tmodifier onlyStoreOwner() {\n\t\tif (marketplaceInstance.checkStoreOwnerStatus(msg.sender) == true)\n\t\t\t_;\n\t}\n\n\tmodifier onlyStorefrontOwner(bytes32 id) {\n\t\tif (storefrontById[id].owner == msg.sender)\n\t\t\t_; \n\t}\n\n\tfunction createStorefront(string name) onlyStoreOwner public returns (bytes32) {\n\t\tbytes32 id = keccak256(msg.sender, name, now);\n\t\tStorefront memory s = Storefront(id, name, msg.sender, 0);\n\t\tstorefronts[msg.sender].push(s.id);\n\t\tstorefrontById[id] = s;\n\t\temit StorefrontCreated(id, name, msg.sender, getStorefrontCountByOwner(msg.sender));\n\t\treturn s.id; \n\t}\n\n\tfunction removeStorefront(bytes32 id) onlyStorefrontOwner(id) public {\n\t\tStorefront memory sf = storefrontById[id]; \n\t\tProduct [] inventory = inventories[id]; \n\n\t\t// First, delete all products from storefront \n\t\tfor (uint i=0; i<inventory.length; i++) {\n\t\t\tdelete inventory[i];\n\t\t}\n\n\t\t// Then, remove from storefronts mapping\n\t\tuint sfCount = storefronts[msg.sender].length; \n\t\tfor(i=0; i<sfCount; i++) {\n\t\t\tif (storefronts[msg.sender][i] == id) {\n\t\t\t\tstorefronts[msg.sender][i] = storefronts[msg.sender][sfCount-1]; \n\t\t\t\tdelete storefronts[msg.sender][sfCount-1];\n\t\t\t\tbreak;\n\t\t\t}\n\t\t}\n\n\t\t// Finally, remove from storeFrontsById \n\t\tdelete storefrontById[id];\n\t\temit StorefrontRemoved(id);\n\t}\n\n\tfunction getStorefrontCountByOwner(address owner) constant public returns (uint) {\n\t\tuint initialCount = storefronts[owner].length;\n\t\tfor(uint i=0; i<storefronts[owner].length; i++)\n\t\t\tif (storefronts[owner][i] == 0x0000000000000000000000000000000000000000000000000000000000000000)\n\t\t\t\tinitialCount -= 1; \n\t\treturn initialCount;\n\t}\n\n\tfunction getStorefrontsIdByOwnerAndIndex(address owner, uint storefrontIndex) constant public returns (bytes32) {\n\t\treturn storefronts[owner][storefrontIndex];\n\t}\n\n\tfunction addProductToStorefront(bytes32 storefrontId, string name, string description, uint cost, uint qty) \n\tpublic onlyStorefrontOwner(storefrontId) returns (bytes32) {\n\t\tbytes32 productId = keccak256(msg.sender, storefrontId, name, now); \n\t\tProduct memory p = Product(productId, name, description, cost, qty, storefrontId); \n\t\tinventories[storefrontId].push(p); \n\t\temit ProductCreated(productId, name, description, cost, qty, storefrontId);\n\t\treturn p.id; \n\t}\n\n\tfunction removeProductFromStorefront(bytes32 productId, bytes32 storefrontId) onlyStorefrontOwner(storefrontId) public {\n\t\tProduct [] inventory = inventories[storefrontId]; \n\t\tuint productCount = inventory.length; \n\n\t\tfor(uint i=0; i<productCount; i++) {\n\t\t\tif (inventory[i].id == productId) {\n\t\t\t\tinventory[i] = inventory[productCount-1];\n\t\t\t\tdelete inventory[productCount-1];\n\t\t\t\tbreak;\n\t\t\t}\n\t\t}\n\n\t\temit ProductRemoved(productId, storefrontId);\n\t}\n\n\tfunction getProductCountByStorefrontId(bytes32 id) constant public returns (uint) {\n\t\treturn inventories[id].length;\n\t}\n\n\tevent T(string str);\n\tfunction print(string str) {\n\t\temit T(str);\n\t}\n\n\tfunction getProductIdByStorefrontIdAndIndex(bytes32 storefrontId, uint productIndex) public returns (bytes32) {\n\t\treturn bytes32(inventories[storefrontId][productIndex].id); \n\t}\n}",
  "sourcePath": "/Users/tim/Code/solidity-marketplace/contracts/Stores.sol",
  "compiler": {
    "name": "solc",
    "version": "0.4.24+commit.e67f0147.Emscripten.clang"
  },
  "schemaVersion": "2.0.0",
  "updatedAt": "2018-07-22T20:02:05.026Z"
}