{
  "contractName": "Stores",
  "abi": [
    {
      "constant": true,
      "inputs": [],
      "name": "marketplaceInstance",
      "outputs": [
        {
          "name": "",
          "type": "address"
        }
      ],
      "payable": false,
      "stateMutability": "view",
      "type": "function"
    },
    {
      "constant": false,
      "inputs": [],
      "name": "kill",
      "outputs": [],
      "payable": false,
      "stateMutability": "nonpayable",
      "type": "function"
    },
    {
      "constant": true,
      "inputs": [
        {
          "name": "",
          "type": "bytes32"
        }
      ],
      "name": "productById",
      "outputs": [
        {
          "name": "id",
          "type": "bytes32"
        },
        {
          "name": "name",
          "type": "string"
        },
        {
          "name": "description",
          "type": "string"
        },
        {
          "name": "price",
          "type": "uint256"
        },
        {
          "name": "qty",
          "type": "uint256"
        },
        {
          "name": "storefrontId",
          "type": "bytes32"
        }
      ],
      "payable": false,
      "stateMutability": "view",
      "type": "function"
    },
    {
      "constant": true,
      "inputs": [],
      "name": "marketplaceId",
      "outputs": [
        {
          "name": "",
          "type": "address"
        }
      ],
      "payable": false,
      "stateMutability": "view",
      "type": "function"
    },
    {
      "constant": true,
      "inputs": [],
      "name": "owner",
      "outputs": [
        {
          "name": "",
          "type": "address"
        }
      ],
      "payable": false,
      "stateMutability": "view",
      "type": "function"
    },
    {
      "constant": true,
      "inputs": [
        {
          "name": "",
          "type": "bytes32"
        }
      ],
      "name": "storefrontById",
      "outputs": [
        {
          "name": "id",
          "type": "bytes32"
        },
        {
          "name": "name",
          "type": "string"
        },
        {
          "name": "owner",
          "type": "address"
        },
        {
          "name": "balance",
          "type": "uint256"
        }
      ],
      "payable": false,
      "stateMutability": "view",
      "type": "function"
    },
    {
      "constant": true,
      "inputs": [
        {
          "name": "",
          "type": "address"
        },
        {
          "name": "",
          "type": "uint256"
        }
      ],
      "name": "storefronts",
      "outputs": [
        {
          "name": "",
          "type": "bytes32"
        }
      ],
      "payable": false,
      "stateMutability": "view",
      "type": "function"
    },
    {
      "constant": true,
      "inputs": [
        {
          "name": "",
          "type": "bytes32"
        },
        {
          "name": "",
          "type": "uint256"
        }
      ],
      "name": "inventories",
      "outputs": [
        {
          "name": "",
          "type": "bytes32"
        }
      ],
      "payable": false,
      "stateMutability": "view",
      "type": "function"
    },
    {
      "constant": false,
      "inputs": [
        {
          "name": "newOwner",
          "type": "address"
        }
      ],
      "name": "transferOwnership",
      "outputs": [],
      "payable": false,
      "stateMutability": "nonpayable",
      "type": "function"
    },
    {
      "inputs": [
        {
          "name": "marketplaceContract",
          "type": "address"
        }
      ],
      "payable": false,
      "stateMutability": "nonpayable",
      "type": "constructor"
    },
    {
      "anonymous": false,
      "inputs": [
        {
          "indexed": false,
          "name": "id",
          "type": "bytes32"
        },
        {
          "indexed": false,
          "name": "name",
          "type": "string"
        },
        {
          "indexed": false,
          "name": "owner",
          "type": "address"
        },
        {
          "indexed": false,
          "name": "totalStores",
          "type": "uint256"
        }
      ],
      "name": "StorefrontCreated",
      "type": "event"
    },
    {
      "anonymous": false,
      "inputs": [
        {
          "indexed": false,
          "name": "id",
          "type": "bytes32"
        }
      ],
      "name": "StorefrontRemoved",
      "type": "event"
    },
    {
      "anonymous": false,
      "inputs": [
        {
          "indexed": false,
          "name": "storefrontId",
          "type": "bytes32"
        },
        {
          "indexed": false,
          "name": "amount",
          "type": "uint256"
        }
      ],
      "name": "BalanceWithdrawn",
      "type": "event"
    },
    {
      "anonymous": false,
      "inputs": [
        {
          "indexed": false,
          "name": "id",
          "type": "bytes32"
        },
        {
          "indexed": false,
          "name": "name",
          "type": "string"
        },
        {
          "indexed": false,
          "name": "description",
          "type": "string"
        },
        {
          "indexed": false,
          "name": "price",
          "type": "uint256"
        },
        {
          "indexed": false,
          "name": "qty",
          "type": "uint256"
        },
        {
          "indexed": false,
          "name": "storefrontId",
          "type": "bytes32"
        }
      ],
      "name": "ProductCreated",
      "type": "event"
    },
    {
      "anonymous": false,
      "inputs": [
        {
          "indexed": false,
          "name": "productId",
          "type": "bytes32"
        },
        {
          "indexed": false,
          "name": "storefrontId",
          "type": "bytes32"
        }
      ],
      "name": "ProductRemoved",
      "type": "event"
    },
    {
      "anonymous": false,
      "inputs": [
        {
          "indexed": false,
          "name": "productId",
          "type": "bytes32"
        },
        {
          "indexed": false,
          "name": "oldPrice",
          "type": "uint256"
        },
        {
          "indexed": false,
          "name": "newPrice",
          "type": "uint256"
        }
      ],
      "name": "PriceUpdated",
      "type": "event"
    },
    {
      "anonymous": false,
      "inputs": [
        {
          "indexed": false,
          "name": "productId",
          "type": "bytes32"
        },
        {
          "indexed": false,
          "name": "storefrontId",
          "type": "bytes32"
        },
        {
          "indexed": false,
          "name": "price",
          "type": "uint256"
        },
        {
          "indexed": false,
          "name": "qty",
          "type": "uint256"
        },
        {
          "indexed": false,
          "name": "total",
          "type": "uint256"
        },
        {
          "indexed": false,
          "name": "buyer",
          "type": "address"
        },
        {
          "indexed": false,
          "name": "newQuantity",
          "type": "uint256"
        }
      ],
      "name": "ProductSold",
      "type": "event"
    },
    {
      "constant": true,
      "inputs": [],
      "name": "getBalance",
      "outputs": [
        {
          "name": "",
          "type": "uint256"
        }
      ],
      "payable": false,
      "stateMutability": "view",
      "type": "function"
    },
    {
      "constant": false,
      "inputs": [
        {
          "name": "name",
          "type": "string"
        }
      ],
      "name": "createStorefront",
      "outputs": [
        {
          "name": "",
          "type": "bytes32"
        }
      ],
      "payable": false,
      "stateMutability": "nonpayable",
      "type": "function"
    },
    {
      "constant": false,
      "inputs": [
        {
          "name": "id",
          "type": "bytes32"
        }
      ],
      "name": "removeStorefront",
      "outputs": [],
      "payable": false,
      "stateMutability": "nonpayable",
      "type": "function"
    },
    {
      "constant": false,
      "inputs": [
        {
          "name": "storefrontId",
          "type": "bytes32"
        }
      ],
      "name": "withdrawStorefrontBalance",
      "outputs": [],
      "payable": false,
      "stateMutability": "nonpayable",
      "type": "function"
    },
    {
      "constant": true,
      "inputs": [
        {
          "name": "owner",
          "type": "address"
        }
      ],
      "name": "getStorefrontCount",
      "outputs": [
        {
          "name": "",
          "type": "uint256"
        }
      ],
      "payable": false,
      "stateMutability": "view",
      "type": "function"
    },
    {
      "constant": true,
      "inputs": [
        {
          "name": "owner",
          "type": "address"
        },
        {
          "name": "storefrontIndex",
          "type": "uint256"
        }
      ],
      "name": "getStorefrontsId",
      "outputs": [
        {
          "name": "",
          "type": "bytes32"
        }
      ],
      "payable": false,
      "stateMutability": "view",
      "type": "function"
    },
    {
      "constant": true,
      "inputs": [
        {
          "name": "storefrontId",
          "type": "bytes32"
        }
      ],
      "name": "getStorefrontBalance",
      "outputs": [
        {
          "name": "",
          "type": "uint256"
        }
      ],
      "payable": false,
      "stateMutability": "view",
      "type": "function"
    },
    {
      "constant": false,
      "inputs": [
        {
          "name": "storefrontId",
          "type": "bytes32"
        },
        {
          "name": "name",
          "type": "string"
        },
        {
          "name": "description",
          "type": "string"
        },
        {
          "name": "price",
          "type": "uint256"
        },
        {
          "name": "qty",
          "type": "uint256"
        }
      ],
      "name": "addProduct",
      "outputs": [
        {
          "name": "",
          "type": "bytes32"
        }
      ],
      "payable": false,
      "stateMutability": "nonpayable",
      "type": "function"
    },
    {
      "constant": false,
      "inputs": [
        {
          "name": "storefrontId",
          "type": "bytes32"
        },
        {
          "name": "productId",
          "type": "bytes32"
        },
        {
          "name": "newPrice",
          "type": "uint256"
        }
      ],
      "name": "updateProductPrice",
      "outputs": [],
      "payable": false,
      "stateMutability": "nonpayable",
      "type": "function"
    },
    {
      "constant": true,
      "inputs": [
        {
          "name": "productId",
          "type": "bytes32"
        }
      ],
      "name": "getProductPrice",
      "outputs": [
        {
          "name": "",
          "type": "uint256"
        }
      ],
      "payable": false,
      "stateMutability": "view",
      "type": "function"
    },
    {
      "constant": false,
      "inputs": [
        {
          "name": "storefrontId",
          "type": "bytes32"
        },
        {
          "name": "productId",
          "type": "bytes32"
        }
      ],
      "name": "removeProduct",
      "outputs": [],
      "payable": false,
      "stateMutability": "nonpayable",
      "type": "function"
    },
    {
      "constant": true,
      "inputs": [
        {
          "name": "storefrontId",
          "type": "bytes32"
        }
      ],
      "name": "getProductCount",
      "outputs": [
        {
          "name": "",
          "type": "uint256"
        }
      ],
      "payable": false,
      "stateMutability": "view",
      "type": "function"
    },
    {
      "constant": false,
      "inputs": [
        {
          "name": "storefrontId",
          "type": "bytes32"
        },
        {
          "name": "productIndex",
          "type": "uint256"
        }
      ],
      "name": "getProductId",
      "outputs": [
        {
          "name": "",
          "type": "bytes32"
        }
      ],
      "payable": false,
      "stateMutability": "nonpayable",
      "type": "function"
    },
    {
      "constant": false,
      "inputs": [
        {
          "name": "storefrontId",
          "type": "bytes32"
        },
        {
          "name": "productId",
          "type": "bytes32"
        },
        {
          "name": "qty",
          "type": "uint256"
        }
      ],
      "name": "purchaseProduct",
      "outputs": [
        {
          "name": "",
          "type": "bool"
        }
      ],
      "payable": true,
      "stateMutability": "payable",
      "type": "function"
    }
  ],
  "bytecode": "0x608060405234801561001057600080fd5b506040516020806119df833981016040525160008054600160a060020a0319908116331790915560028054600160a060020a0390931692821683179055600180549091169091179055611977806100686000396000f3006080604052600436106101315763ffffffff7c010000000000000000000000000000000000000000000000000000000060003504166254cb228114610136578063071722e3146101505780630a2e8bbc1461018357806312065fe0146101a757806321ae6b4c146101bc57806332dd76ec146101e157806340be48801461028657806341c0e1b5146102b757806343cadb07146102cc57806359f0dc5a146102e4578063626bf384146102ff57806376ddf4fd146104175780638282c7f7146104325780638da5cb5b1461044757806391c57e731461045c578063a51e286614610474578063c01b7b2814610492578063cbdbaab3146104aa578063d0c8d6e71461055a578063e6389865146105b3578063ecb01a2d146105d7578063f26cb8b2146105f2578063f2fde38b1461060a575b600080fd5b34801561014257600080fd5b5061014e60043561062b565b005b34801561015c57600080fd5b50610171600160a060020a03600435166106eb565b60408051918252519081900360200190f35b34801561018f57600080fd5b50610171600160a060020a0360043516602435610776565b3480156101b357600080fd5b506101716107ad565b6101cd6004356024356044356107b3565b604080519115158252519081900360200190f35b3480156101ed57600080fd5b5060408051602060046024803582810135601f810185900485028601850190965285855261017195833595369560449491939091019190819084018382808284375050604080516020601f89358b018035918201839004830284018301909452808352979a9998810197919650918201945092508291508401838280828437509497505084359550505060209092013591506108c29050565b34801561029257600080fd5b5061029b610c90565b60408051600160a060020a039092168252519081900360200190f35b3480156102c357600080fd5b5061014e610c9f565b3480156102d857600080fd5b50610171600435610cc2565b3480156102f057600080fd5b5061014e600435602435610d16565b34801561030b57600080fd5b50610317600435610e6c565b60408051878152606081018590526080810184905260a0810183905260c060208083018281528951928401929092528851929391929184019160e08501918a019080838360005b8381101561037657818101518382015260200161035e565b50505050905090810190601f1680156103a35780820380516001836020036101000a031916815260200191505b50838103825287518152875160209182019189019080838360005b838110156103d65781810151838201526020016103be565b50505050905090810190601f1680156104035780820380516001836020036101000a031916815260200191505b509850505050505050505060405180910390f35b34801561042357600080fd5b50610171600435602435610fb7565b34801561043e57600080fd5b5061029b610fd1565b34801561045357600080fd5b5061029b610fe0565b34801561046857600080fd5b50610171600435610fef565b34801561048057600080fd5b5061014e600435602435604435611004565b34801561049e57600080fd5b50610171600435611092565b3480156104b657600080fd5b506104c26004356110a7565b60408051858152600160a060020a038416918101919091526060810182905260806020808301828152865192840192909252855160a084019187019080838360005b8381101561051c578181015183820152602001610504565b50505050905090810190601f1680156105495780820380516001836020036101000a031916815260200191505b509550505050505060405180910390f35b34801561056657600080fd5b506040805160206004803580820135601f81018490048402850184019095528484526101719436949293602493928401919081908401838280828437509497506111649650505050505050565b3480156105bf57600080fd5b50610171600160a060020a0360043516602435611464565b3480156105e357600080fd5b50610171600435602435611494565b3480156105fe57600080fd5b5061014e6004356114af565b34801561061657600080fd5b5061014e600160a060020a03600435166117bc565b6000818152600460205260408120600201548290600160a060020a03163314156106e65760008381526004602052604081206003015492508211156106e657604051339083156108fc029084906000818181858888f19350505050158015610697573d6000803e3d6000fd5b50604080518481526020810184905281517fb7576a710fcc891d13513585bab7cd7b441b1f0aeb4ded4d5052fb7b27301efc929181900390910190a16000838152600460205260408120600301555b505050565b600160a060020a038116600090815260036020526040812054815b600160a060020a03841660009081526003602052604090205481101561076b57600160a060020a038416600090815260036020526040902080548290811061074a57fe5b6000918252602090912001541515610763576001820391505b600101610706565b8192505b5050919050565b600160a060020a038216600090815260036020526040812080548390811061079a57fe5b9060005260206000200154905092915050565b30315b90565b60008281526006602052604081206003810154830282348211156107d657600080fd5b60048301548511156107e757600080fd5b600090508134111561082857506040513482900390339082156108fc029083906000818181858888f19350505050158015610826573d6000803e3d6000fd5b505b6004808401805487900381556003808601805460008c815260209586526040908190209093018054918b0291909101905554915481518a81529384018b90528382019290925260608301889052608083018590523360a084015260c0830191909152517f7908e2a768805667ab950902d0fe58c8136a7d0d8d216b37f55c1a670f216f049181900360e00190a15060019695505050505050565b6000806108cd61180a565b6000888152600460205260409020600201548890600160a060020a0316331415610c84573389898989896040516020018087600160a060020a0316600160a060020a03166c01000000000000000000000000028152601401866000191660001916815260200185805190602001908083835b6020831061095e5780518252601f19909201916020918201910161093f565b51815160209384036101000a600019018019909216911617905287519190930192870191508083835b602083106109a65780518252601f199092019160209182019101610987565b51815160209384036101000a6000190180199092169116179052920194855250838101929092525060408051808403830181529281019081905282519296509450849350850191508083835b60208310610a115780518252601f1990920191602091820191016109f2565b6001836020036101000a0380198251168184511680821785525050505050509050019150506040518091039020925060c060405190810160405280846000191681526020018981526020018881526020018781526020018681526020018a600019168152509150600560008a6000191660001916815260200190815260200160002083908060018154018082558091505090600182039060005260206000200160009091929091909150906000191690555081600660008560001916600019168152602001908152602001600020600082015181600001906000191690556020820151816001019080519060200190610b0b929190611847565b5060408201518051610b27916002840191602090910190611847565b50606082015181600301556080820151816004015560a082015181600501906000191690559050507fd6f06da506a6a9f4ad6f1228e309816cf3d901169d4caece6e6a2083e66c612683898989898e60405180876000191660001916815260200180602001806020018681526020018581526020018460001916600019168152602001838103835288818151815260200191508051906020019080838360005b83811015610bdf578181015183820152602001610bc7565b50505050905090810190601f168015610c0c5780820380516001836020036101000a031916815260200191505b50838103825287518152875160209182019189019080838360005b83811015610c3f578181015183820152602001610c27565b50505050905090810190601f168015610c6c5780820380516001836020036101000a031916815260200191505b509850505050505050505060405180910390a1815193505b50505095945050505050565b600254600160a060020a031681565b600054600160a060020a0316331415610cc057600054600160a060020a0316ff5b565b600081815260056020526040812054815b8181101561076b576000848152600560205260409020805482908110610cf557fe5b6000918252602090912001541515610d0e576001820391505b600101610cd3565b600082815260046020526040812060020154819081908590600160a060020a0316331415610e645760008681526005602052604081208054909550935091505b82821015610e645783548590859084908110610d6e57fe5b6000918252602090912001541415610e59578360018403815481101515610d9157fe5b90600052602060002001548483815481101515610daa57fe5b600091825260209091200155835484906000198501908110610dc857fe5b60009182526020808320909101829055868252600690526040812081815590610df460018301826118c5565b610e026002830160006118c5565b5060006003820181905560048201819055600590910155604080518681526020810188905281517f9396d89cfd36885055291073c496c2bc497cca89a17ca88b5831153129be8f3f929181900390910190a1610e64565b600190910190610d56565b505050505050565b6006602090815260009182526040918290208054600180830180548651600293821615610100026000190190911692909204601f810186900486028301860190965285825291949293909290830182828015610f095780601f10610ede57610100808354040283529160200191610f09565b820191906000526020600020905b815481529060010190602001808311610eec57829003601f168201915b50505060028085018054604080516020601f6000196101006001871615020190941695909504928301859004850281018501909152818152959695945090925090830182828015610f9b5780601f10610f7057610100808354040283529160200191610f9b565b820191906000526020600020905b815481529060010190602001808311610f7e57829003601f168201915b5050505050908060030154908060040154908060050154905086565b600082815260056020526040812080548390811061079a57fe5b600154600160a060020a031681565b600054600160a060020a031681565b60009081526006602052604090206003015490565b60008381526004602052604081206002015481908590600160a060020a0316331415610e645760008581526006602090815260409182902060038101805490889055835189815292830181905282840188905292519095509193507fbcd10d64fce9dcf9568572ed92e371df336d32649e8960a045c9548794a44b26919081900360600190a1505050505050565b60009081526004602052604090206003015490565b6004602090815260009182526040918290208054600180830180548651600293821615610100026000190190911692909204601f8101869004860283018601909652858252919492939092908301828280156111445780601f1061111957610100808354040283529160200191611144565b820191906000526020600020905b81548152906001019060200180831161112757829003601f168201915b5050505060028301546003909301549192600160a060020a031691905084565b60008061116f611909565b600254604080517fdf3014980000000000000000000000000000000000000000000000000000000081523360048201529051600160a060020a039092169163df301498916024808201926020929091908290030181600087803b1580156111d557600080fd5b505af11580156111e9573d6000803e3d6000fd5b505050506040513d60208110156111ff57600080fd5b505115156001141561076f573384426040516020018084600160a060020a0316600160a060020a03166c0100000000000000000000000002815260140183805190602001908083835b602083106112675780518252601f199092019160209182019101611248565b51815160209384036101000a60001901801990921691161790529201938452506040805180850381529382019081905283519395509350839290850191508083835b602083106112c85780518252601f1990920191602091820191016112a9565b51815160209384036101000a6000190180199092169116179052604080519290940182900382206080830185528083528282018b8152338487018190526000606086018190529081526003845286812085518154600180820184559284528684200155838252600485529690208451815590518051929a5093985088975095506113589486019350910190611847565b50604082015160028201805473ffffffffffffffffffffffffffffffffffffffff1916600160a060020a039092169190911790556060909101516003909101557f63b1e6cf44931a3824f6f14a47a4fa82702fc1cdb53a164de2071dd0a356ecac8285336113c5816106eb565b60408051858152600160a060020a038416918101919091526060810182905260806020808301828152865192840192909252855160a084019187019080838360005b8381101561141f578181015183820152602001611407565b50505050905090810190601f16801561144c5780820380516001836020036101000a031916815260200191505b509550505050505060405180910390a1519392505050565b60036020528160005260406000208181548110151561147f57fe5b90600052602060002001600091509150505481565b60056020528160005260406000208181548110151561147f57fe5b6114b7611909565b600082815260046020526040812060020154819081908590600160a060020a0316331415610e6457600086815260046020908152604091829020825160808101845281548152600180830180548651600260001994831615610100029490940190911692909204601f810186900486028301860190965285825291949293858101939192919083018282801561158e5780601f106115635761010080835404028352916020019161158e565b820191906000526020600020905b81548152906001019060200180831161157157829003601f168201915b50505091835250506002820154600160a060020a031660208083019190915260039092015460409182015260008981526005909252812091965090945092505b835483101561165e576006600085858154811015156115e957fe5b6000918252602080832090910154835282019290925260400181208181559061161560018301826118c5565b6116236002830160006118c5565b5060006003820181905560048201819055600590910155835484908490811061164857fe5b60009182526020822001556001909201916115ce565b3360009081526003602052604081205490935091505b8183101561173a5733600090815260036020526040902080548791908590811061169a57fe5b600091825260209091200154141561172f57336000908152600360205260409020805460001984019081106116cb57fe5b6000918252602080832090910154338352600390915260409091208054859081106116f257fe5b60009182526020808320909101929092553381526003909152604090208054600019840190811061171f57fe5b600091825260208220015561173a565b600190920191611674565b60008681526004602052604081208181559061175960018301826118c5565b5060028101805473ffffffffffffffffffffffffffffffffffffffff1916905560006003909101556040805187815290517fa16d84ad81a40b510e191d53e48b35c490398b47c2a058f71f876ed1edbc62ff9181900360200190a1505050505050565b600054600160a060020a031633141561180757600160a060020a03811615611807576000805473ffffffffffffffffffffffffffffffffffffffff1916600160a060020a0383161790555b50565b60c0604051908101604052806000801916815260200160608152602001606081526020016000815260200160008152602001600080191681525090565b828054600181600116156101000203166002900490600052602060002090601f016020900481019282601f1061188857805160ff19168380011785556118b5565b828001600101855582156118b5579182015b828111156118b557825182559160200191906001019061189a565b506118c1929150611931565b5090565b50805460018160011615610100020316600290046000825580601f106118eb5750611807565b601f0160209004906000526020600020908101906118079190611931565b6040805160808101825260008082526060602083018190529282018190529181019190915290565b6107b091905b808211156118c157600081556001016119375600a165627a7a7230582030a9be8e2fd8b596d157f0a74529069e932a79405838ed869c739313b60a6a890029",
  "source": "pragma solidity ^0.4.2;\n\nimport \"./zeppelin/ownership/Ownable.sol\";\nimport './zeppelin/lifecycle/Killable.sol';\nimport './Marketplace.sol';\n\n/*\n* Store \n*\n* This is the main contract for the Store implementation.\n*/\ncontract Stores is Ownable, Killable {\n\taddress public marketplaceId; \n\tMarketplace public marketplaceInstance; \n\n\tconstructor(address marketplaceContract) public {\n\t\tmarketplaceInstance = Marketplace(marketplaceContract);\n\t\tmarketplaceId = marketplaceContract; \n\t}\n\n\tstruct Storefront {\n\t\tbytes32 id; \n\t\tstring name;\n\t\taddress owner; \n\t\tuint balance; \n\t}\n\n\tstruct Product {\n\t\tbytes32 id; \n\t\tstring name; \n\t\tstring description; \n\t\tuint price; \n\t\tuint qty; \n\t\tbytes32 storefrontId; \n\t}\n\n\tevent StorefrontCreated (\n\t\tbytes32 id, \n\t\tstring name, \n\t\taddress owner, \n\t\tuint totalStores);\n\n\tevent StorefrontRemoved (\n\t\tbytes32 id);\n\n\tevent BalanceWithdrawn (\n\t\tbytes32 storefrontId,\n\t\tuint256 amount);\n\n\tevent ProductCreated (\n\t\tbytes32 id, \n\t\tstring name, \n\t\tstring description, \n\t\tuint price, \n\t\tuint qty, \n\t\tbytes32 storefrontId);\n\n\tevent ProductRemoved (\n\t\tbytes32 productId, \n\t\tbytes32 storefrontId);\n\n\tevent PriceUpdated (\n\t\tbytes32 productId,\n\t\tuint oldPrice,\n\t\tuint newPrice);\n\n\tevent ProductSold (\n\t\tbytes32 productId,\n\t\tbytes32 storefrontId,\n\t\tuint price,\n\t\tuint qty,\n\t\tuint total,\n\t\taddress buyer,\n\t\tuint newQuantity);\n\n\tmapping (address => bytes32[]) public storefronts; \n\tmapping (bytes32 => Storefront) public storefrontById;\n\tmapping (bytes32 => bytes32[]) public inventories; \n\tmapping (bytes32 => Product) public productById;\n\n\tmodifier onlyStoreOwner() {\n\t\tif (marketplaceInstance.checkStoreOwnerStatus(msg.sender) == true)\n\t\t\t_;\n\t}\n\n\tmodifier onlyStorefrontOwner(bytes32 id) {\n\t\tif (storefrontById[id].owner == msg.sender)\n\t\t\t_; \n\t}\n\n\tfunction getBalance() \n\tconstant\n\tpublic \n\treturns (uint) {\n\t\treturn address(this).balance;\n\t}\n\n\tfunction createStorefront(string name) \n\tonlyStoreOwner \n\tpublic \n\treturns (bytes32) {\n\t\tbytes32 id = keccak256(abi.encodePacked(msg.sender, name, now));\n\t\tStorefront memory s = Storefront(id, name, msg.sender, 0);\n\t\tstorefronts[msg.sender].push(s.id);\n\t\tstorefrontById[id] = s;\n\t\temit StorefrontCreated(id, name, msg.sender, getStorefrontCount(msg.sender));\n\t\treturn s.id; \n\t}\n\n\tfunction removeStorefront(bytes32 id) \n\tonlyStorefrontOwner(id) \n\tpublic {\n\t\tStorefront memory sf = storefrontById[id]; \n\t\tbytes32 [] storage inventory = inventories[id]; \n\n\t\t// Delete all products from storefront \n\t\tfor (uint i=0; i<inventory.length; i++) {\n\t\t\tdelete productById[inventory[i]];\n\t\t\tdelete inventory[i];\n\t\t}\n\t\t// Remove from storefronts mapping\n\t\tuint sfCount = storefronts[msg.sender].length; \n\t\tfor(i=0; i<sfCount; i++) {\n\t\t\tif (storefronts[msg.sender][i] == id) {\n\t\t\t\tstorefronts[msg.sender][i] = storefronts[msg.sender][sfCount-1]; \n\t\t\t\tdelete storefronts[msg.sender][sfCount-1];\n\t\t\t\tbreak;\n\t\t\t}\n\t\t}\n\t\t// Remove from storefrontById \n\t\tdelete storefrontById[id];\n\t\temit StorefrontRemoved(id);\n\t}\n\n\tfunction withdrawStorefrontBalance(bytes32 storefrontId) \n\tonlyStorefrontOwner(storefrontId)\n\tpublic {\n\t\tuint storefrontBalance = storefrontById[storefrontId].balance;\n\t\tif (storefrontBalance > 0) {\n\t\t\tmsg.sender.transfer(storefrontBalance);\n\t\t\temit BalanceWithdrawn(storefrontId, storefrontBalance);\n\t\t\tstorefrontById[storefrontId].balance = 0;\n\t\t}\n\t}\n\n\tfunction getStorefrontCount(address owner) \n\tconstant \n\tpublic \n\treturns (uint) {\n\t\tuint initialCount = storefronts[owner].length;\n\t\tfor(uint i=0; i<storefronts[owner].length; i++)\n\t\t\tif (storefronts[owner][i] == 0x0000000000000000000000000000000000000000000000000000000000000000)\n\t\t\t\tinitialCount -= 1; \n\t\treturn initialCount;\n\t}\n\n\tfunction getStorefrontsId(address owner, uint storefrontIndex) \n\tconstant \n\tpublic \n\treturns (bytes32) {\n\t\treturn storefronts[owner][storefrontIndex];\n\t}\n\n\tfunction getStorefrontBalance(bytes32 storefrontId) \n\tconstant \n\tpublic \n\treturns (uint) {\n\t\treturn storefrontById[storefrontId].balance;\n\t}\n\n\tfunction addProduct(bytes32 storefrontId, string name, string description, uint price, uint qty) \n\tpublic \n\tonlyStorefrontOwner(storefrontId) \n\treturns (bytes32) {\n\t\tbytes32 productId = keccak256(abi.encodePacked(msg.sender, storefrontId, name, description, price, qty)); \n\t\tProduct memory p = Product(productId, name, description, price, qty, storefrontId); \n\t\tinventories[storefrontId].push(productId); \n\t\tproductById[productId] = p;\n\t\temit ProductCreated(productId, name, description, price, qty, storefrontId);\n\t\treturn p.id; \n\t}\n\n\tfunction updateProductPrice(bytes32 storefrontId, bytes32 productId, uint newPrice) \n\tonlyStorefrontOwner(storefrontId) \n\tpublic {\n\t\tProduct product = productById[productId];\n\t\tuint oldPrice = product.price;\n\t\tproductById[productId].price = newPrice;\n\t\temit PriceUpdated(productId, oldPrice, newPrice);\n\t}\n\n\tfunction getProductPrice(bytes32 productId) \n\tconstant \n\tpublic \n\treturns (uint) {\n\t\treturn productById[productId].price;\n\t}\n\n\tfunction removeProduct(bytes32 storefrontId, bytes32 productId) \n\tonlyStorefrontOwner(storefrontId) \n\tpublic {\n\t\tbytes32[] inventory = inventories[storefrontId]; \n\t\tuint productCount = inventory.length; \n\n\t\tfor(uint i=0; i<productCount; i++) {\n\t\t\tif (inventory[i] == productId) {\n\t\t\t\tinventory[i] = inventory[productCount-1];\n\t\t\t\tdelete inventory[productCount-1];\n\t\t\t\tdelete productById[productId];\n\t\t\t\temit ProductRemoved(productId, storefrontId);\n\t\t\t\tbreak;\n\t\t\t}\n\t\t}\n\t}\n\n\tfunction getProductCount(bytes32 storefrontId) \n\tconstant \n\tpublic \n\treturns (uint) {\n\t\tuint count = inventories[storefrontId].length;\n\t\tfor(uint i=0; i<count; i++) {\n\t\t\tif (inventories[storefrontId][i] == 0x0000000000000000000000000000000000000000000000000000000000000000)\n\t\t\t\tcount -= 1;\n\t\t}\n\t\treturn count;\n\t}\n\n\tfunction getProductId(bytes32 storefrontId, uint productIndex) \n\tpublic \n\treturns (bytes32) {\n\t\treturn bytes32(inventories[storefrontId][productIndex]); \n\t}\n\n\tfunction purchaseProduct(bytes32 storefrontId, bytes32 productId, uint qty) \n\tpayable \n\treturns (bool) {\n\t\t// Fetch product from inventory and perform checks \n\t\tProduct product = productById[productId];\n\t\tuint total =  product.price*qty;\n\t\trequire(msg.value >= total);\n\t\trequire(qty <= product.qty);\n\n\t\t// If amount sent is too large, refund the difference\n\t\tuint refund = 0; \n\t\tif (msg.value > total) {\n\t\t\trefund = msg.value - total;\n\t\t\tmsg.sender.transfer(refund);\n\t\t}\n\n\t\t// Update product and storefront attributes\n\t\tproduct.qty -= qty;\n\t\tstorefrontById[storefrontId].balance += product.price*qty;\n\t\temit ProductSold(productId, storefrontId, product.price, qty, total, msg.sender, product.qty);\n\t\treturn true;\n\t}\n}",
  "sourcePath": "/Users/tim/Code/solidity-marketplace/contracts/Stores.sol",
  "compiler": {
    "name": "solc",
    "version": "0.4.24+commit.e67f0147.Emscripten.clang"
  },
  "schemaVersion": "2.0.1",
  "updatedAt": "2018-08-18T00:57:29.588Z"
}